{
  "contractName": "BillStorage",
  "abi": [
    {
      "inputs": [],
      "name": "billCount",
      "outputs": [
        {
          "internalType": "uint256",
          "name": "",
          "type": "uint256"
        }
      ],
      "stateMutability": "view",
      "type": "function",
      "constant": true
    },
    {
      "inputs": [
        {
          "internalType": "bytes32",
          "name": "",
          "type": "bytes32"
        }
      ],
      "name": "billIndices",
      "outputs": [
        {
          "internalType": "uint256",
          "name": "",
          "type": "uint256"
        }
      ],
      "stateMutability": "view",
      "type": "function",
      "constant": true
    },
    {
      "inputs": [
        {
          "internalType": "uint256",
          "name": "",
          "type": "uint256"
        }
      ],
      "name": "bills",
      "outputs": [
        {
          "internalType": "string",
          "name": "senderRegNo",
          "type": "string"
        },
        {
          "internalType": "string",
          "name": "senderName",
          "type": "string"
        },
        {
          "internalType": "string",
          "name": "senderAccountNo",
          "type": "string"
        },
        {
          "internalType": "string",
          "name": "receiverRegNo",
          "type": "string"
        },
        {
          "internalType": "string",
          "name": "receiverName",
          "type": "string"
        },
        {
          "internalType": "string",
          "name": "receiverAccountNo",
          "type": "string"
        },
        {
          "internalType": "uint256",
          "name": "amount",
          "type": "uint256"
        },
        {
          "internalType": "uint256",
          "name": "dateTime",
          "type": "uint256"
        },
        {
          "internalType": "string",
          "name": "description",
          "type": "string"
        },
        {
          "internalType": "uint256",
          "name": "feeId",
          "type": "uint256"
        }
      ],
      "stateMutability": "view",
      "type": "function",
      "constant": true
    },
    {
      "inputs": [
        {
          "internalType": "string",
          "name": "_senderRegNo",
          "type": "string"
        },
        {
          "internalType": "string",
          "name": "_senderName",
          "type": "string"
        },
        {
          "internalType": "string",
          "name": "_senderAccountNo",
          "type": "string"
        },
        {
          "internalType": "string",
          "name": "_receiverRegNo",
          "type": "string"
        },
        {
          "internalType": "string",
          "name": "_receiverName",
          "type": "string"
        },
        {
          "internalType": "string",
          "name": "_receiverAccountNo",
          "type": "string"
        },
        {
          "internalType": "uint256",
          "name": "_amount",
          "type": "uint256"
        },
        {
          "internalType": "uint256",
          "name": "_dateTime",
          "type": "uint256"
        },
        {
          "internalType": "string",
          "name": "_description",
          "type": "string"
        },
        {
          "internalType": "uint256",
          "name": "_feeId",
          "type": "uint256"
        }
      ],
      "name": "addBill",
      "outputs": [],
      "stateMutability": "nonpayable",
      "type": "function"
    },
    {
      "inputs": [
        {
          "internalType": "uint256",
          "name": "_billNo",
          "type": "uint256"
        }
      ],
      "name": "getBillByBillNo",
      "outputs": [
        {
          "internalType": "string",
          "name": "",
          "type": "string"
        },
        {
          "internalType": "string",
          "name": "",
          "type": "string"
        },
        {
          "internalType": "string",
          "name": "",
          "type": "string"
        },
        {
          "internalType": "string",
          "name": "",
          "type": "string"
        },
        {
          "internalType": "string",
          "name": "",
          "type": "string"
        },
        {
          "internalType": "string",
          "name": "",
          "type": "string"
        },
        {
          "internalType": "uint256",
          "name": "",
          "type": "uint256"
        },
        {
          "internalType": "uint256",
          "name": "",
          "type": "uint256"
        },
        {
          "internalType": "string",
          "name": "",
          "type": "string"
        },
        {
          "internalType": "uint256",
          "name": "",
          "type": "uint256"
        }
      ],
      "stateMutability": "view",
      "type": "function",
      "constant": true
    },
    {
      "inputs": [],
      "name": "getBillCount",
      "outputs": [
        {
          "internalType": "uint256",
          "name": "",
          "type": "uint256"
        }
      ],
      "stateMutability": "view",
      "type": "function",
      "constant": true
    },
    {
      "inputs": [
        {
          "internalType": "string",
          "name": "_senderRegNo",
          "type": "string"
        },
        {
          "internalType": "uint256",
          "name": "_feeId",
          "type": "uint256"
        }
      ],
      "name": "getBillBySenderAndFeeId",
      "outputs": [
        {
          "internalType": "string",
          "name": "",
          "type": "string"
        },
        {
          "internalType": "string",
          "name": "",
          "type": "string"
        },
        {
          "internalType": "string",
          "name": "",
          "type": "string"
        },
        {
          "internalType": "string",
          "name": "",
          "type": "string"
        },
        {
          "internalType": "string",
          "name": "",
          "type": "string"
        },
        {
          "internalType": "string",
          "name": "",
          "type": "string"
        },
        {
          "internalType": "uint256",
          "name": "",
          "type": "uint256"
        },
        {
          "internalType": "uint256",
          "name": "",
          "type": "uint256"
        },
        {
          "internalType": "string",
          "name": "",
          "type": "string"
        }
      ],
      "stateMutability": "view",
      "type": "function",
      "constant": true
    }
  ],
  "bytecode": "0x608060405234801561001057600080fd5b50611b1f806100206000396000f3fe608060405234801561001057600080fd5b506004361061007d5760003560e01c80633924c6081161005b5780633924c6081461011157806341dc341214610141578063608cd8771461015f57806376773c6f1461017b5761007d565b80631876bba0146100825780631883c7cc146100ba57806328bdcde8146100d8575b600080fd5b61009c600480360381019061009791906114c1565b6101b4565b6040516100b199989796959493929190611648565b60405180910390f35b6100c26106d8565b6040516100cf9190611813565b60405180910390f35b6100f260048036038101906100ed919061151d565b6106e2565b6040516101089a99989796959493929190611706565b60405180910390f35b61012b600480360381019061012691906112f1565b610aee565b6040516101389190611813565b60405180910390f35b610149610b06565b6040516101569190611813565b60405180910390f35b6101796004803603810190610174919061131e565b610b0c565b005b6101956004803603810190610190919061151d565b610cc0565b6040516101ab9a99989796959493929190611706565b60405180910390f35b606080606080606080600080606060008b8b6040516020016101d7929190611620565b6040516020818303038152906040528051906020012090506000600160008381526020019081526020016000205490506000811161024a576040517f08c379a0000000000000000000000000000000000000000000000000000000008152600401610241906117d3565b60405180910390fd5b60008060008381526020019081526020016000206040518061014001604052908160008201805461027a90611901565b80601f01602080910402602001604051908101604052809291908181526020018280546102a690611901565b80156102f35780601f106102c8576101008083540402835291602001916102f3565b820191906000526020600020905b8154815290600101906020018083116102d657829003601f168201915b5050505050815260200160018201805461030c90611901565b80601f016020809104026020016040519081016040528092919081815260200182805461033890611901565b80156103855780601f1061035a57610100808354040283529160200191610385565b820191906000526020600020905b81548152906001019060200180831161036857829003601f168201915b5050505050815260200160028201805461039e90611901565b80601f01602080910402602001604051908101604052809291908181526020018280546103ca90611901565b80156104175780601f106103ec57610100808354040283529160200191610417565b820191906000526020600020905b8154815290600101906020018083116103fa57829003601f168201915b5050505050815260200160038201805461043090611901565b80601f016020809104026020016040519081016040528092919081815260200182805461045c90611901565b80156104a95780601f1061047e576101008083540402835291602001916104a9565b820191906000526020600020905b81548152906001019060200180831161048c57829003601f168201915b505050505081526020016004820180546104c290611901565b80601f01602080910402602001604051908101604052809291908181526020018280546104ee90611901565b801561053b5780601f106105105761010080835404028352916020019161053b565b820191906000526020600020905b81548152906001019060200180831161051e57829003601f168201915b5050505050815260200160058201805461055490611901565b80601f016020809104026020016040519081016040528092919081815260200182805461058090611901565b80156105cd5780601f106105a2576101008083540402835291602001916105cd565b820191906000526020600020905b8154815290600101906020018083116105b057829003601f168201915b5050505050815260200160068201548152602001600782015481526020016008820180546105fa90611901565b80601f016020809104026020016040519081016040528092919081815260200182805461062690611901565b80156106735780601f1061064857610100808354040283529160200191610673565b820191906000526020600020905b81548152906001019060200180831161065657829003601f168201915b505050505081526020016009820154815250509050806000015181602001518260400151836060015184608001518560a001518660c001518760e001518861010001519b509b509b509b509b509b509b509b509b505050509295985092959850929598565b6000600254905090565b600060205280600052604060002060009150905080600001805461070590611901565b80601f016020809104026020016040519081016040528092919081815260200182805461073190611901565b801561077e5780601f106107535761010080835404028352916020019161077e565b820191906000526020600020905b81548152906001019060200180831161076157829003601f168201915b50505050509080600101805461079390611901565b80601f01602080910402602001604051908101604052809291908181526020018280546107bf90611901565b801561080c5780601f106107e15761010080835404028352916020019161080c565b820191906000526020600020905b8154815290600101906020018083116107ef57829003601f168201915b50505050509080600201805461082190611901565b80601f016020809104026020016040519081016040528092919081815260200182805461084d90611901565b801561089a5780601f1061086f5761010080835404028352916020019161089a565b820191906000526020600020905b81548152906001019060200180831161087d57829003601f168201915b5050505050908060030180546108af90611901565b80601f01602080910402602001604051908101604052809291908181526020018280546108db90611901565b80156109285780601f106108fd57610100808354040283529160200191610928565b820191906000526020600020905b81548152906001019060200180831161090b57829003601f168201915b50505050509080600401805461093d90611901565b80601f016020809104026020016040519081016040528092919081815260200182805461096990611901565b80156109b65780601f1061098b576101008083540402835291602001916109b6565b820191906000526020600020905b81548152906001019060200180831161099957829003601f168201915b5050505050908060050180546109cb90611901565b80601f01602080910402602001604051908101604052809291908181526020018280546109f790611901565b8015610a445780601f10610a1957610100808354040283529160200191610a44565b820191906000526020600020905b815481529060010190602001808311610a2757829003601f168201915b505050505090806006015490806007015490806008018054610a6590611901565b80601f0160208091040260200160405190810160405280929190818152602001828054610a9190611901565b8015610ade5780601f10610ab357610100808354040283529160200191610ade565b820191906000526020600020905b815481529060010190602001808311610ac157829003601f168201915b505050505090806009015490508a565b60016020528060005260406000206000915090505481565b60025481565b60026000815480929190610b1f90611964565b91905055506040518061014001604052808b81526020018a81526020018981526020018881526020018781526020018681526020018581526020018481526020018381526020018281525060008060025481526020019081526020016000206000820151816000019080519060200190610b9a9291906111b4565b506020820151816001019080519060200190610bb79291906111b4565b506040820151816002019080519060200190610bd49291906111b4565b506060820151816003019080519060200190610bf19291906111b4565b506080820151816004019080519060200190610c0e9291906111b4565b5060a0820151816005019080519060200190610c2b9291906111b4565b5060c0820151816006015560e08201518160070155610100820151816008019080519060200190610c5d9291906111b4565b50610120820151816009015590505060008a82604051602001610c81929190611620565b60405160208183030381529060405280519060200120905060025460016000838152602001908152602001600020819055505050505050505050505050565b60608060608060608060008060606000808b118015610ce157506002548b11155b610d20576040517f08c379a0000000000000000000000000000000000000000000000000000000008152600401610d17906117f3565b60405180910390fd5b60008060008d815260200190815260200160002060405180610140016040529081600082018054610d5090611901565b80601f0160208091040260200160405190810160405280929190818152602001828054610d7c90611901565b8015610dc95780601f10610d9e57610100808354040283529160200191610dc9565b820191906000526020600020905b815481529060010190602001808311610dac57829003601f168201915b50505050508152602001600182018054610de290611901565b80601f0160208091040260200160405190810160405280929190818152602001828054610e0e90611901565b8015610e5b5780601f10610e3057610100808354040283529160200191610e5b565b820191906000526020600020905b815481529060010190602001808311610e3e57829003601f168201915b50505050508152602001600282018054610e7490611901565b80601f0160208091040260200160405190810160405280929190818152602001828054610ea090611901565b8015610eed5780601f10610ec257610100808354040283529160200191610eed565b820191906000526020600020905b815481529060010190602001808311610ed057829003601f168201915b50505050508152602001600382018054610f0690611901565b80601f0160208091040260200160405190810160405280929190818152602001828054610f3290611901565b8015610f7f5780601f10610f5457610100808354040283529160200191610f7f565b820191906000526020600020905b815481529060010190602001808311610f6257829003601f168201915b50505050508152602001600482018054610f9890611901565b80601f0160208091040260200160405190810160405280929190818152602001828054610fc490611901565b80156110115780601f10610fe657610100808354040283529160200191611011565b820191906000526020600020905b815481529060010190602001808311610ff457829003601f168201915b5050505050815260200160058201805461102a90611901565b80601f016020809104026020016040519081016040528092919081815260200182805461105690611901565b80156110a35780601f10611078576101008083540402835291602001916110a3565b820191906000526020600020905b81548152906001019060200180831161108657829003601f168201915b5050505050815260200160068201548152602001600782015481526020016008820180546110d090611901565b80601f01602080910402602001604051908101604052809291908181526020018280546110fc90611901565b80156111495780601f1061111e57610100808354040283529160200191611149565b820191906000526020600020905b81548152906001019060200180831161112c57829003601f168201915b505050505081526020016009820154815250509050806000015181602001518260400151836060015184608001518560a001518660c001518760e001518861010001518961012001519a509a509a509a509a509a509a509a509a509a50509193959799509193959799565b8280546111c090611901565b90600052602060002090601f0160209004810192826111e25760008555611229565b82601f106111fb57805160ff1916838001178555611229565b82800160010185558215611229579182015b8281111561122857825182559160200191906001019061120d565b5b509050611236919061123a565b5090565b5b8082111561125357600081600090555060010161123b565b5090565b600061126a61126584611853565b61182e565b90508281526020810184848401111561128657611285611a49565b5b6112918482856118bf565b509392505050565b6000813590506112a881611abb565b92915050565b600082601f8301126112c3576112c2611a44565b5b81356112d3848260208601611257565b91505092915050565b6000813590506112eb81611ad2565b92915050565b60006020828403121561130757611306611a53565b5b600061131584828501611299565b91505092915050565b6000806000806000806000806000806101408b8d03121561134257611341611a53565b5b60008b013567ffffffffffffffff8111156113605761135f611a4e565b5b61136c8d828e016112ae565b9a505060208b013567ffffffffffffffff81111561138d5761138c611a4e565b5b6113998d828e016112ae565b99505060408b013567ffffffffffffffff8111156113ba576113b9611a4e565b5b6113c68d828e016112ae565b98505060608b013567ffffffffffffffff8111156113e7576113e6611a4e565b5b6113f38d828e016112ae565b97505060808b013567ffffffffffffffff81111561141457611413611a4e565b5b6114208d828e016112ae565b96505060a08b013567ffffffffffffffff81111561144157611440611a4e565b5b61144d8d828e016112ae565b95505060c061145e8d828e016112dc565b94505060e061146f8d828e016112dc565b9350506101008b013567ffffffffffffffff81111561149157611490611a4e565b5b61149d8d828e016112ae565b9250506101206114af8d828e016112dc565b9150509295989b9194979a5092959850565b600080604083850312156114d8576114d7611a53565b5b600083013567ffffffffffffffff8111156114f6576114f5611a4e565b5b611502858286016112ae565b9250506020611513858286016112dc565b9150509250929050565b60006020828403121561153357611532611a53565b5b6000611541848285016112dc565b91505092915050565b600061155582611884565b61155f818561188f565b935061156f8185602086016118ce565b61157881611a58565b840191505092915050565b600061158e82611884565b61159881856118a0565b93506115a88185602086016118ce565b80840191505092915050565b60006115c1600e8361188f565b91506115cc82611a69565b602082019050919050565b60006115e460138361188f565b91506115ef82611a92565b602082019050919050565b611603816118b5565b82525050565b61161a611615826118b5565b6119ad565b82525050565b600061162c8285611583565b91506116388284611609565b6020820191508190509392505050565b6000610120820190508181036000830152611663818c61154a565b90508181036020830152611677818b61154a565b9050818103604083015261168b818a61154a565b9050818103606083015261169f818961154a565b905081810360808301526116b3818861154a565b905081810360a08301526116c7818761154a565b90506116d660c08301866115fa565b6116e360e08301856115fa565b8181036101008301526116f6818461154a565b90509a9950505050505050505050565b6000610140820190508181036000830152611721818d61154a565b90508181036020830152611735818c61154a565b90508181036040830152611749818b61154a565b9050818103606083015261175d818a61154a565b90508181036080830152611771818961154a565b905081810360a0830152611785818861154a565b905061179460c08301876115fa565b6117a160e08301866115fa565b8181036101008301526117b4818561154a565b90506117c46101208301846115fa565b9b9a5050505050505050505050565b600060208201905081810360008301526117ec816115b4565b9050919050565b6000602082019050818103600083015261180c816115d7565b9050919050565b600060208201905061182860008301846115fa565b92915050565b6000611838611849565b90506118448282611933565b919050565b6000604051905090565b600067ffffffffffffffff82111561186e5761186d611a15565b5b61187782611a58565b9050602081019050919050565b600081519050919050565b600082825260208201905092915050565b600081905092915050565b6000819050919050565b6000819050919050565b82818337600083830152505050565b60005b838110156118ec5780820151818401526020810190506118d1565b838111156118fb576000848401525b50505050565b6000600282049050600182168061191957607f821691505b6020821081141561192d5761192c6119e6565b5b50919050565b61193c82611a58565b810181811067ffffffffffffffff8211171561195b5761195a611a15565b5b80604052505050565b600061196f826118b5565b91507fffffffffffffffffffffffffffffffffffffffffffffffffffffffffffffffff8214156119a2576119a16119b7565b5b600182019050919050565b6000819050919050565b7f4e487b7100000000000000000000000000000000000000000000000000000000600052601160045260246000fd5b7f4e487b7100000000000000000000000000000000000000000000000000000000600052602260045260246000fd5b7f4e487b7100000000000000000000000000000000000000000000000000000000600052604160045260246000fd5b600080fd5b600080fd5b600080fd5b600080fd5b6000601f19601f8301169050919050565b7f42696c6c206e6f7420666f756e64000000000000000000000000000000000000600082015250565b7f496e76616c69642062696c6c206e756d62657200000000000000000000000000600082015250565b611ac4816118ab565b8114611acf57600080fd5b50565b611adb816118b5565b8114611ae657600080fd5b5056fea2646970667358221220c2daf869ce47f92d2e5badc43549e18bfc9aa5c179fb96705490843d91a134ee64736f6c63430008070033",
  "immutableReferences": {},
  "source": "// SPDX-License-Identifier: MIT\npragma solidity ^0.8.7;\n\ncontract BillStorage {\n    struct Bill {\n        string senderRegNo;\n        string senderName;\n        string senderAccountNo;\n        string receiverRegNo;\n        string receiverName;\n        string receiverAccountNo;\n        uint256 amount;\n        uint256 dateTime;\n        string description;\n        uint256 feeId; // New field for fee ID\n    }\n\n    mapping(uint256 => Bill) public bills;\n    mapping(bytes32 => uint256) public billIndices; // New mapping for quick lookup\n    uint256 public billCount;\n\n    function addBill(\n        string memory _senderRegNo,\n        string memory _senderName,\n        string memory _senderAccountNo,\n        string memory _receiverRegNo,\n        string memory _receiverName,\n        string memory _receiverAccountNo,\n        uint256 _amount,\n        uint256 _dateTime,\n        string memory _description,\n        uint256 _feeId\n    ) public {\n        billCount++;\n        bills[billCount] = Bill(\n            _senderRegNo,\n            _senderName,\n            _senderAccountNo,\n            _receiverRegNo,\n            _receiverName,\n            _receiverAccountNo,\n            _amount,\n            _dateTime,\n            _description,\n            _feeId\n        );\n\n        bytes32 key = keccak256(abi.encodePacked(_senderRegNo, _feeId));\n        billIndices[key] = billCount; // Store the bill index for quick lookup\n    }\n\n    function getBillByBillNo(uint256 _billNo)\n        public\n        view\n        returns (\n            string memory,\n            string memory,\n            string memory,\n            string memory,\n            string memory,\n            string memory,\n            uint256,\n            uint256,\n            string memory,\n            uint256\n        )\n    {\n        require(_billNo > 0 && _billNo <= billCount, \"Invalid bill number\");\n        Bill memory bill = bills[_billNo];\n        return (\n            bill.senderRegNo,\n            bill.senderName,\n            bill.senderAccountNo,\n            bill.receiverRegNo,\n            bill.receiverName,\n            bill.receiverAccountNo,\n            bill.amount,\n            bill.dateTime,\n            bill.description,\n            bill.feeId\n        );\n    }\n\n    function getBillCount() public view returns (uint256) {\n        return billCount;\n    }\n\n    function getBillBySenderAndFeeId(\n        string memory _senderRegNo,\n        uint256 _feeId\n    )\n        public\n        view\n        returns (\n            string memory,\n            string memory,\n            string memory,\n            string memory,\n            string memory,\n            string memory,\n            uint256,\n            uint256,\n            string memory\n        )\n    {\n        bytes32 key = keccak256(abi.encodePacked(_senderRegNo, _feeId));\n        uint256 billIndex = billIndices[key];\n        require(billIndex > 0, \"Bill not found\");\n        Bill memory bill = bills[billIndex];\n        return (\n            bill.senderRegNo,\n            bill.senderName,\n            bill.senderAccountNo,\n            bill.receiverRegNo,\n            bill.receiverName,\n            bill.receiverAccountNo,\n            bill.amount,\n            bill.dateTime,\n            bill.description\n        );\n    }\n}\n",
  "sourcePath": "/root/Documents/ZeroReview/ZeroApp/contracts/BillStorage.sol",
  "compiler": {
    "name": "solc",
    "version": "0.8.7+commit.e28d00a7.Emscripten.clang"
  },
  "schemaVersion": "3.4.15",
  "updatedAt": "2023-11-02T04:49:46.065Z",
  "networkType": "ethereum",
  "devdoc": {
    "kind": "dev",
    "methods": {},
    "version": 1
  },
  "userdoc": {
    "kind": "user",
    "methods": {},
    "version": 1
  }
}