{
  "contractName": "EventStorage",
  "abi": [
    {
      "inputs": [],
      "name": "eventCount",
      "outputs": [
        {
          "internalType": "uint256",
          "name": "",
          "type": "uint256"
        }
      ],
      "stateMutability": "view",
      "type": "function",
      "constant": true
    },
    {
      "inputs": [
        {
          "internalType": "uint256",
          "name": "",
          "type": "uint256"
        }
      ],
      "name": "events",
      "outputs": [
        {
          "internalType": "string",
          "name": "eventName",
          "type": "string"
        },
        {
          "internalType": "uint256",
          "name": "totalStudents",
          "type": "uint256"
        },
        {
          "internalType": "string",
          "name": "description",
          "type": "string"
        },
        {
          "internalType": "string",
          "name": "eventType",
          "type": "string"
        },
        {
          "internalType": "string",
          "name": "department",
          "type": "string"
        },
        {
          "internalType": "uint256",
          "name": "timestamp",
          "type": "uint256"
        }
      ],
      "stateMutability": "view",
      "type": "function",
      "constant": true
    },
    {
      "inputs": [
        {
          "internalType": "string",
          "name": "_eventName",
          "type": "string"
        },
        {
          "internalType": "uint256",
          "name": "_totalStudents",
          "type": "uint256"
        },
        {
          "internalType": "string",
          "name": "_description",
          "type": "string"
        },
        {
          "internalType": "string",
          "name": "_eventType",
          "type": "string"
        },
        {
          "internalType": "string",
          "name": "_department",
          "type": "string"
        }
      ],
      "name": "addEvent",
      "outputs": [],
      "stateMutability": "nonpayable",
      "type": "function"
    },
    {
      "inputs": [
        {
          "internalType": "uint256",
          "name": "_eventId",
          "type": "uint256"
        }
      ],
      "name": "getEvent",
      "outputs": [
        {
          "internalType": "string",
          "name": "",
          "type": "string"
        },
        {
          "internalType": "uint256",
          "name": "",
          "type": "uint256"
        },
        {
          "internalType": "string",
          "name": "",
          "type": "string"
        },
        {
          "internalType": "string",
          "name": "",
          "type": "string"
        },
        {
          "internalType": "string",
          "name": "",
          "type": "string"
        },
        {
          "internalType": "uint256",
          "name": "",
          "type": "uint256"
        }
      ],
      "stateMutability": "view",
      "type": "function",
      "constant": true
    },
    {
      "inputs": [],
      "name": "getEventCount",
      "outputs": [
        {
          "internalType": "uint256",
          "name": "",
          "type": "uint256"
        }
      ],
      "stateMutability": "view",
      "type": "function",
      "constant": true
    }
  ],
  "bytecode": "0x608060405234801561001057600080fd5b50610d76806100206000396000f3fe608060405234801561001057600080fd5b50600436106100575760003560e01c80630b7914301461005c5780636d1884e01461009157806371be2e4a146100c6578063d239b0e5146100e4578063d9e48f5c14610100575b600080fd5b61007660048036038101906100719190610994565b61011e565b60405161008896959493929190610a2c565b60405180910390f35b6100ab60048036038101906100a69190610994565b61037a565b6040516100bd96959493929190610a2c565b60405180910390f35b6100ce610686565b6040516100db9190610ac9565b60405180910390f35b6100fe60048036038101906100f991906108a9565b61068c565b005b610108610777565b6040516101159190610ac9565b60405180910390f35b600060205280600052604060002060009150905080600001805461014190610ba2565b80601f016020809104026020016040519081016040528092919081815260200182805461016d90610ba2565b80156101ba5780601f1061018f576101008083540402835291602001916101ba565b820191906000526020600020905b81548152906001019060200180831161019d57829003601f168201915b5050505050908060010154908060020180546101d590610ba2565b80601f016020809104026020016040519081016040528092919081815260200182805461020190610ba2565b801561024e5780601f106102235761010080835404028352916020019161024e565b820191906000526020600020905b81548152906001019060200180831161023157829003601f168201915b50505050509080600301805461026390610ba2565b80601f016020809104026020016040519081016040528092919081815260200182805461028f90610ba2565b80156102dc5780601f106102b1576101008083540402835291602001916102dc565b820191906000526020600020905b8154815290600101906020018083116102bf57829003601f168201915b5050505050908060040180546102f190610ba2565b80601f016020809104026020016040519081016040528092919081815260200182805461031d90610ba2565b801561036a5780601f1061033f5761010080835404028352916020019161036a565b820191906000526020600020905b81548152906001019060200180831161034d57829003601f168201915b5050505050908060050154905086565b6060600060608060606000808711801561039657506001548711155b6103d5576040517f08c379a00000000000000000000000000000000000000000000000000000000081526004016103cc90610aa9565b60405180910390fd5b60008060008981526020019081526020016000206040518060c001604052908160008201805461040490610ba2565b80601f016020809104026020016040519081016040528092919081815260200182805461043090610ba2565b801561047d5780601f106104525761010080835404028352916020019161047d565b820191906000526020600020905b81548152906001019060200180831161046057829003601f168201915b50505050508152602001600182015481526020016002820180546104a090610ba2565b80601f01602080910402602001604051908101604052809291908181526020018280546104cc90610ba2565b80156105195780601f106104ee57610100808354040283529160200191610519565b820191906000526020600020905b8154815290600101906020018083116104fc57829003601f168201915b5050505050815260200160038201805461053290610ba2565b80601f016020809104026020016040519081016040528092919081815260200182805461055e90610ba2565b80156105ab5780601f10610580576101008083540402835291602001916105ab565b820191906000526020600020905b81548152906001019060200180831161058e57829003601f168201915b505050505081526020016004820180546105c490610ba2565b80601f01602080910402602001604051908101604052809291908181526020018280546105f090610ba2565b801561063d5780601f106106125761010080835404028352916020019161063d565b820191906000526020600020905b81548152906001019060200180831161062057829003601f168201915b505050505081526020016005820154815250509050806000015181602001518260400151836060015184608001518560a001519650965096509650965096505091939550919395565b60015481565b6001600081548092919061069f90610c05565b91905055506040518060c001604052808681526020018581526020018481526020018381526020018281526020014281525060008060015481526020019081526020016000206000820151816000019080519060200190610701929190610781565b50602082015181600101556040820151816002019080519060200190610728929190610781565b506060820151816003019080519060200190610745929190610781565b506080820151816004019080519060200190610762929190610781565b5060a082015181600501559050505050505050565b6000600154905090565b82805461078d90610ba2565b90600052602060002090601f0160209004810192826107af57600085556107f6565b82601f106107c857805160ff19168380011785556107f6565b828001600101855582156107f6579182015b828111156107f55782518255916020019190600101906107da565b5b5090506108039190610807565b5090565b5b80821115610820576000816000905550600101610808565b5090565b600061083761083284610b09565b610ae4565b90508281526020810184848401111561085357610852610ce0565b5b61085e848285610b60565b509392505050565b600082601f83011261087b5761087a610cdb565b5b813561088b848260208601610824565b91505092915050565b6000813590506108a381610d29565b92915050565b600080600080600060a086880312156108c5576108c4610cea565b5b600086013567ffffffffffffffff8111156108e3576108e2610ce5565b5b6108ef88828901610866565b955050602061090088828901610894565b945050604086013567ffffffffffffffff81111561092157610920610ce5565b5b61092d88828901610866565b935050606086013567ffffffffffffffff81111561094e5761094d610ce5565b5b61095a88828901610866565b925050608086013567ffffffffffffffff81111561097b5761097a610ce5565b5b61098788828901610866565b9150509295509295909350565b6000602082840312156109aa576109a9610cea565b5b60006109b884828501610894565b91505092915050565b60006109cc82610b3a565b6109d68185610b45565b93506109e6818560208601610b6f565b6109ef81610cef565b840191505092915050565b6000610a07601083610b45565b9150610a1282610d00565b602082019050919050565b610a2681610b56565b82525050565b600060c0820190508181036000830152610a4681896109c1565b9050610a556020830188610a1d565b8181036040830152610a6781876109c1565b90508181036060830152610a7b81866109c1565b90508181036080830152610a8f81856109c1565b9050610a9e60a0830184610a1d565b979650505050505050565b60006020820190508181036000830152610ac2816109fa565b9050919050565b6000602082019050610ade6000830184610a1d565b92915050565b6000610aee610aff565b9050610afa8282610bd4565b919050565b6000604051905090565b600067ffffffffffffffff821115610b2457610b23610cac565b5b610b2d82610cef565b9050602081019050919050565b600081519050919050565b600082825260208201905092915050565b6000819050919050565b82818337600083830152505050565b60005b83811015610b8d578082015181840152602081019050610b72565b83811115610b9c576000848401525b50505050565b60006002820490506001821680610bba57607f821691505b60208210811415610bce57610bcd610c7d565b5b50919050565b610bdd82610cef565b810181811067ffffffffffffffff82111715610bfc57610bfb610cac565b5b80604052505050565b6000610c1082610b56565b91507fffffffffffffffffffffffffffffffffffffffffffffffffffffffffffffffff821415610c4357610c42610c4e565b5b600182019050919050565b7f4e487b7100000000000000000000000000000000000000000000000000000000600052601160045260246000fd5b7f4e487b7100000000000000000000000000000000000000000000000000000000600052602260045260246000fd5b7f4e487b7100000000000000000000000000000000000000000000000000000000600052604160045260246000fd5b600080fd5b600080fd5b600080fd5b600080fd5b6000601f19601f8301169050919050565b7f496e76616c6964206576656e7420494400000000000000000000000000000000600082015250565b610d3281610b56565b8114610d3d57600080fd5b5056fea2646970667358221220fed0b18f5a54284908e9726c0256a1e50880f16171c9c8e214d67605f28b5c5364736f6c63430008070033",
  "immutableReferences": {},
  "source": "// SPDX-License-Identifier: MIT\npragma solidity ^0.8.7;\n\ncontract EventStorage {\n    struct Event {\n        string eventName;\n        uint256 totalStudents;\n        string description;\n        string eventType;\n        string department;\n        uint256 timestamp;\n    }\n\n    mapping(uint256 => Event) public events;\n    uint256 public eventCount;\n\n    function addEvent(\n        string memory _eventName,\n        uint256 _totalStudents,\n        string memory _description,\n        string memory _eventType,\n        string memory _department\n    ) public {\n        eventCount++;\n        events[eventCount] = Event(\n            _eventName,\n            _totalStudents,\n            _description,\n            _eventType,\n            _department,\n            block.timestamp\n        );\n    }\n\n    function getEvent(uint256 _eventId)\n        public\n        view\n        returns (\n            string memory,\n            uint256,\n            string memory,\n            string memory,\n            string memory,\n            uint256\n        )\n    {\n        require(_eventId > 0 && _eventId <= eventCount, \"Invalid event ID\");\n        Event memory eventData = events[_eventId];\n        return (\n            eventData.eventName,\n            eventData.totalStudents,\n            eventData.description,\n            eventData.eventType,\n            eventData.department,\n            eventData.timestamp\n        );\n    }\n\n    function getEventCount() public view returns (uint256) {\n        return eventCount;\n    }\n}\n",
  "sourcePath": "/root/Documents/ZeroReview/ZeroApp/contracts/EventStorage.sol",
  "compiler": {
    "name": "solc",
    "version": "0.8.7+commit.e28d00a7.Emscripten.clang"
  },
  "schemaVersion": "3.4.15",
  "updatedAt": "2023-11-02T04:49:46.386Z",
  "networkType": "ethereum",
  "devdoc": {
    "kind": "dev",
    "methods": {},
    "version": 1
  },
  "userdoc": {
    "kind": "user",
    "methods": {},
    "version": 1
  }
}