{
  "contractName": "FeeContract",
  "abi": [
    {
      "anonymous": false,
      "inputs": [
        {
          "indexed": true,
          "internalType": "uint256",
          "name": "feeId",
          "type": "uint256"
        },
        {
          "indexed": false,
          "internalType": "string",
          "name": "title",
          "type": "string"
        },
        {
          "indexed": false,
          "internalType": "string",
          "name": "message",
          "type": "string"
        }
      ],
      "name": "FeeAdded",
      "type": "event"
    },
    {
      "inputs": [
        {
          "internalType": "uint256",
          "name": "",
          "type": "uint256"
        }
      ],
      "name": "fees",
      "outputs": [
        {
          "internalType": "uint256",
          "name": "feeId",
          "type": "uint256"
        },
        {
          "internalType": "string",
          "name": "title",
          "type": "string"
        },
        {
          "internalType": "string",
          "name": "description",
          "type": "string"
        },
        {
          "internalType": "uint256",
          "name": "amount",
          "type": "uint256"
        },
        {
          "internalType": "uint256",
          "name": "deadline",
          "type": "uint256"
        },
        {
          "internalType": "string",
          "name": "studentType",
          "type": "string"
        },
        {
          "internalType": "string",
          "name": "feeType",
          "type": "string"
        }
      ],
      "stateMutability": "view",
      "type": "function",
      "constant": true
    },
    {
      "inputs": [
        {
          "internalType": "uint256",
          "name": "_feeId",
          "type": "uint256"
        },
        {
          "internalType": "string",
          "name": "_title",
          "type": "string"
        },
        {
          "internalType": "string",
          "name": "_description",
          "type": "string"
        },
        {
          "internalType": "uint256",
          "name": "_amount",
          "type": "uint256"
        },
        {
          "internalType": "uint256",
          "name": "_deadline",
          "type": "uint256"
        },
        {
          "internalType": "string",
          "name": "_studentType",
          "type": "string"
        },
        {
          "internalType": "string",
          "name": "_feeType",
          "type": "string"
        }
      ],
      "name": "addFee",
      "outputs": [],
      "stateMutability": "nonpayable",
      "type": "function"
    },
    {
      "inputs": [],
      "name": "getFeeCount",
      "outputs": [
        {
          "internalType": "uint256",
          "name": "",
          "type": "uint256"
        }
      ],
      "stateMutability": "view",
      "type": "function",
      "constant": true
    },
    {
      "inputs": [
        {
          "internalType": "uint256",
          "name": "_index",
          "type": "uint256"
        }
      ],
      "name": "getFee",
      "outputs": [
        {
          "components": [
            {
              "internalType": "uint256",
              "name": "feeId",
              "type": "uint256"
            },
            {
              "internalType": "string",
              "name": "title",
              "type": "string"
            },
            {
              "internalType": "string",
              "name": "description",
              "type": "string"
            },
            {
              "internalType": "uint256",
              "name": "amount",
              "type": "uint256"
            },
            {
              "internalType": "uint256",
              "name": "deadline",
              "type": "uint256"
            },
            {
              "internalType": "string",
              "name": "studentType",
              "type": "string"
            },
            {
              "internalType": "string",
              "name": "feeType",
              "type": "string"
            }
          ],
          "internalType": "struct FeeContract.Fee",
          "name": "",
          "type": "tuple"
        }
      ],
      "stateMutability": "view",
      "type": "function",
      "constant": true
    },
    {
      "inputs": [
        {
          "internalType": "uint256",
          "name": "_feeId",
          "type": "uint256"
        }
      ],
      "name": "getFeeById",
      "outputs": [
        {
          "components": [
            {
              "internalType": "uint256",
              "name": "feeId",
              "type": "uint256"
            },
            {
              "internalType": "string",
              "name": "title",
              "type": "string"
            },
            {
              "internalType": "string",
              "name": "description",
              "type": "string"
            },
            {
              "internalType": "uint256",
              "name": "amount",
              "type": "uint256"
            },
            {
              "internalType": "uint256",
              "name": "deadline",
              "type": "uint256"
            },
            {
              "internalType": "string",
              "name": "studentType",
              "type": "string"
            },
            {
              "internalType": "string",
              "name": "feeType",
              "type": "string"
            }
          ],
          "internalType": "struct FeeContract.Fee",
          "name": "",
          "type": "tuple"
        }
      ],
      "stateMutability": "view",
      "type": "function",
      "constant": true
    }
  ],
  "bytecode": "0x608060405234801561001057600080fd5b506114ba806100206000396000f3fe608060405234801561001057600080fd5b50600436106100575760003560e01c80633ef59d0e1461005c5780634acc79ed14610078578063dff4ca8c146100ae578063e41f7f5f146100cc578063fcee45f4146100fc575b600080fd5b61007660048036038101906100719190610d1c565b61012c565b005b610092600480360381019061008d9190610cef565b6102ef565b6040516100a597969594939291906110e2565b60405180910390f35b6100b6610561565b6040516100c391906110c7565b60405180910390f35b6100e660048036038101906100e19190610cef565b61056d565b6040516100f391906110a5565b60405180910390f35b61011660048036038101906101119190610cef565b6108a1565b60405161012391906110a5565b60405180910390f35b60005b6000805490508110156101ba57876000828154811061015157610150611346565b5b90600052602060002090600702016000015414156101a757877ff985fa992b3414aebba1c4ffc2a1b25ee7482591119ebcd7b0b641c91da1594c886040516101999190610ffb565b60405180910390a2506102e6565b80806101b29061129f565b91505061012f565b5060006040518060e0016040528089815260200188815260200187815260200186815260200185815260200184815260200183815250908060018154018082558091505060019003906000526020600020906007020160009091909190915060008201518160000155602082015181600101908051906020019061023f929190610b8a565b50604082015181600201908051906020019061025c929190610b8a565b50606082015181600301556080820151816004015560a082015181600501908051906020019061028d929190610b8a565b5060c08201518160060190805190602001906102aa929190610b8a565b505050867ff985fa992b3414aebba1c4ffc2a1b25ee7482591119ebcd7b0b641c91da1594c876040516102dd9190611030565b60405180910390a25b50505050505050565b600081815481106102ff57600080fd5b90600052602060002090600702016000915090508060000154908060010180546103289061123c565b80601f01602080910402602001604051908101604052809291908181526020018280546103549061123c565b80156103a15780601f10610376576101008083540402835291602001916103a1565b820191906000526020600020905b81548152906001019060200180831161038457829003601f168201915b5050505050908060020180546103b69061123c565b80601f01602080910402602001604051908101604052809291908181526020018280546103e29061123c565b801561042f5780601f106104045761010080835404028352916020019161042f565b820191906000526020600020905b81548152906001019060200180831161041257829003601f168201915b5050505050908060030154908060040154908060050180546104509061123c565b80601f016020809104026020016040519081016040528092919081815260200182805461047c9061123c565b80156104c95780601f1061049e576101008083540402835291602001916104c9565b820191906000526020600020905b8154815290600101906020018083116104ac57829003601f168201915b5050505050908060060180546104de9061123c565b80601f016020809104026020016040519081016040528092919081815260200182805461050a9061123c565b80156105575780601f1061052c57610100808354040283529160200191610557565b820191906000526020600020905b81548152906001019060200180831161053a57829003601f168201915b5050505050905087565b60008080549050905090565b610575610c10565b60005b60008054905081101561086057826000828154811061059a57610599611346565b5b906000526020600020906007020160000154141561084d57600081815481106105c6576105c5611346565b5b90600052602060002090600702016040518060e0016040529081600082015481526020016001820180546105f99061123c565b80601f01602080910402602001604051908101604052809291908181526020018280546106259061123c565b80156106725780601f1061064757610100808354040283529160200191610672565b820191906000526020600020905b81548152906001019060200180831161065557829003601f168201915b5050505050815260200160028201805461068b9061123c565b80601f01602080910402602001604051908101604052809291908181526020018280546106b79061123c565b80156107045780601f106106d957610100808354040283529160200191610704565b820191906000526020600020905b8154815290600101906020018083116106e757829003601f168201915b5050505050815260200160038201548152602001600482015481526020016005820180546107319061123c565b80601f016020809104026020016040519081016040528092919081815260200182805461075d9061123c565b80156107aa5780601f1061077f576101008083540402835291602001916107aa565b820191906000526020600020905b81548152906001019060200180831161078d57829003601f168201915b505050505081526020016006820180546107c39061123c565b80601f01602080910402602001604051908101604052809291908181526020018280546107ef9061123c565b801561083c5780601f106108115761010080835404028352916020019161083c565b820191906000526020600020905b81548152906001019060200180831161081f57829003601f168201915b50505050508152505091505061089c565b80806108589061129f565b915050610578565b506040517f08c379a000000000000000000000000000000000000000000000000000000000815260040161089390611085565b60405180910390fd5b919050565b6108a9610c10565b60008054905082106108f0576040517f08c379a00000000000000000000000000000000000000000000000000000000081526004016108e790611065565b60405180910390fd5b6000828154811061090457610903611346565b5b90600052602060002090600702016040518060e0016040529081600082015481526020016001820180546109379061123c565b80601f01602080910402602001604051908101604052809291908181526020018280546109639061123c565b80156109b05780601f10610985576101008083540402835291602001916109b0565b820191906000526020600020905b81548152906001019060200180831161099357829003601f168201915b505050505081526020016002820180546109c99061123c565b80601f01602080910402602001604051908101604052809291908181526020018280546109f59061123c565b8015610a425780601f10610a1757610100808354040283529160200191610a42565b820191906000526020600020905b815481529060010190602001808311610a2557829003601f168201915b505050505081526020016003820154815260200160048201548152602001600582018054610a6f9061123c565b80601f0160208091040260200160405190810160405280929190818152602001828054610a9b9061123c565b8015610ae85780601f10610abd57610100808354040283529160200191610ae8565b820191906000526020600020905b815481529060010190602001808311610acb57829003601f168201915b50505050508152602001600682018054610b019061123c565b80601f0160208091040260200160405190810160405280929190818152602001828054610b2d9061123c565b8015610b7a5780601f10610b4f57610100808354040283529160200191610b7a565b820191906000526020600020905b815481529060010190602001808311610b5d57829003601f168201915b5050505050815250509050919050565b828054610b969061123c565b90600052602060002090601f016020900481019282610bb85760008555610bff565b82601f10610bd157805160ff1916838001178555610bff565b82800160010185558215610bff579182015b82811115610bfe578251825591602001919060010190610be3565b5b509050610c0c9190610c4d565b5090565b6040518060e00160405280600081526020016060815260200160608152602001600081526020016000815260200160608152602001606081525090565b5b80821115610c66576000816000905550600101610c4e565b5090565b6000610c7d610c7884611192565b61116d565b905082815260208101848484011115610c9957610c986113a9565b5b610ca48482856111fa565b509392505050565b600082601f830112610cc157610cc06113a4565b5b8135610cd1848260208601610c6a565b91505092915050565b600081359050610ce98161146d565b92915050565b600060208284031215610d0557610d046113b3565b5b6000610d1384828501610cda565b91505092915050565b600080600080600080600060e0888a031215610d3b57610d3a6113b3565b5b6000610d498a828b01610cda565b975050602088013567ffffffffffffffff811115610d6a57610d696113ae565b5b610d768a828b01610cac565b965050604088013567ffffffffffffffff811115610d9757610d966113ae565b5b610da38a828b01610cac565b9550506060610db48a828b01610cda565b9450506080610dc58a828b01610cda565b93505060a088013567ffffffffffffffff811115610de657610de56113ae565b5b610df28a828b01610cac565b92505060c088013567ffffffffffffffff811115610e1357610e126113ae565b5b610e1f8a828b01610cac565b91505092959891949750929550565b6000610e39826111c3565b610e4381856111ce565b9350610e53818560208601611209565b610e5c816113b8565b840191505092915050565b6000610e72826111c3565b610e7c81856111df565b9350610e8c818560208601611209565b610e95816113b8565b840191505092915050565b6000610ead600d836111df565b9150610eb8826113c9565b602082019050919050565b6000610ed06015836111df565b9150610edb826113f2565b602082019050919050565b6000610ef36016836111df565b9150610efe8261141b565b602082019050919050565b6000610f16600d836111df565b9150610f2182611444565b602082019050919050565b600060e083016000830151610f446000860182610fdd565b5060208301518482036020860152610f5c8282610e2e565b91505060408301518482036040860152610f768282610e2e565b9150506060830151610f8b6060860182610fdd565b506080830151610f9e6080860182610fdd565b5060a083015184820360a0860152610fb68282610e2e565b91505060c083015184820360c0860152610fd08282610e2e565b9150508091505092915050565b610fe6816111f0565b82525050565b610ff5816111f0565b82525050565b600060408201905081810360008301526110158184610e67565b9050818103602083015261102881610ec3565b905092915050565b6000604082019050818103600083015261104a8184610e67565b9050818103602083015261105d81610ee6565b905092915050565b6000602082019050818103600083015261107e81610ea0565b9050919050565b6000602082019050818103600083015261109e81610f09565b9050919050565b600060208201905081810360008301526110bf8184610f2c565b905092915050565b60006020820190506110dc6000830184610fec565b92915050565b600060e0820190506110f7600083018a610fec565b81810360208301526111098189610e67565b9050818103604083015261111d8188610e67565b905061112c6060830187610fec565b6111396080830186610fec565b81810360a083015261114b8185610e67565b905081810360c083015261115f8184610e67565b905098975050505050505050565b6000611177611188565b9050611183828261126e565b919050565b6000604051905090565b600067ffffffffffffffff8211156111ad576111ac611375565b5b6111b6826113b8565b9050602081019050919050565b600081519050919050565b600082825260208201905092915050565b600082825260208201905092915050565b6000819050919050565b82818337600083830152505050565b60005b8381101561122757808201518184015260208101905061120c565b83811115611236576000848401525b50505050565b6000600282049050600182168061125457607f821691505b6020821081141561126857611267611317565b5b50919050565b611277826113b8565b810181811067ffffffffffffffff8211171561129657611295611375565b5b80604052505050565b60006112aa826111f0565b91507fffffffffffffffffffffffffffffffffffffffffffffffffffffffffffffffff8214156112dd576112dc6112e8565b5b600182019050919050565b7f4e487b7100000000000000000000000000000000000000000000000000000000600052601160045260246000fd5b7f4e487b7100000000000000000000000000000000000000000000000000000000600052602260045260246000fd5b7f4e487b7100000000000000000000000000000000000000000000000000000000600052603260045260246000fd5b7f4e487b7100000000000000000000000000000000000000000000000000000000600052604160045260246000fd5b600080fd5b600080fd5b600080fd5b600080fd5b6000601f19601f8301169050919050565b7f496e76616c696420696e64657800000000000000000000000000000000000000600082015250565b7f46656520494420616c7265616479206578697374730000000000000000000000600082015250565b7f466565206164646564207375636365737366756c6c7900000000000000000000600082015250565b7f466565206e6f7420666f756e6400000000000000000000000000000000000000600082015250565b611476816111f0565b811461148157600080fd5b5056fea264697066735822122093b999b694ffd53db928b2a65d734231580d68ad7ee1eb882d871178090ae1ce64736f6c63430008070033",
  "immutableReferences": {},
  "source": "// SPDX-License-Identifier: MIT\npragma solidity ^0.8.7;\n\ncontract FeeContract {\n    struct Fee {\n        uint256 feeId;\n        string title;\n        string description;\n        uint256 amount;\n        uint256 deadline;\n        string studentType;\n        string feeType; // New field for fee type\n    }\n\n    Fee[] public fees;\n\n    event FeeAdded(uint256 indexed feeId, string title, string message);\n\n    function addFee(uint256 _feeId, string memory _title, string memory _description, uint256 _amount, uint256 _deadline, string memory _studentType, string memory _feeType) public {\n        for (uint256 i = 0; i < fees.length; i++) {\n            if (fees[i].feeId == _feeId) {\n                emit FeeAdded(_feeId, _title, \"Fee ID already exists\");\n                return;\n            }\n        }\n\n        fees.push(Fee(_feeId, _title, _description, _amount, _deadline, _studentType, _feeType));\n        emit FeeAdded(_feeId, _title, \"Fee added successfully\");\n    }\n\n    function getFeeCount() public view returns (uint256) {\n        return fees.length;\n    }\n\n    function getFee(uint256 _index) public view returns (Fee memory) {\n        require(_index < fees.length, \"Invalid index\");\n        return fees[_index];\n    }\n\n    function getFeeById(uint256 _feeId) public view returns (Fee memory) {\n        for (uint256 i = 0; i < fees.length; i++) {\n            if (fees[i].feeId == _feeId) {\n                return fees[i];\n            }\n        }\n        revert(\"Fee not found\");\n    }\n}\n",
  "sourcePath": "/root/Documents/ZeroReview/ZeroApp/contracts/FeeContract.sol",
  "compiler": {
    "name": "solc",
    "version": "0.8.7+commit.e28d00a7.Emscripten.clang"
  },
  "schemaVersion": "3.4.15",
  "updatedAt": "2023-11-02T04:49:45.227Z",
  "networkType": "ethereum",
  "devdoc": {
    "kind": "dev",
    "methods": {},
    "version": 1
  },
  "userdoc": {
    "kind": "user",
    "methods": {},
    "version": 1
  }
}