{
  "contractName": "StudentContract",
  "abi": [
    {
      "anonymous": false,
      "inputs": [
        {
          "indexed": false,
          "internalType": "string",
          "name": "registerNumber",
          "type": "string"
        },
        {
          "indexed": false,
          "internalType": "uint256",
          "name": "feeId",
          "type": "uint256"
        }
      ],
      "name": "FeePaid",
      "type": "event"
    },
    {
      "anonymous": false,
      "inputs": [
        {
          "indexed": false,
          "internalType": "string",
          "name": "registerNumber",
          "type": "string"
        },
        {
          "indexed": false,
          "internalType": "string",
          "name": "name",
          "type": "string"
        },
        {
          "indexed": false,
          "internalType": "string",
          "name": "department",
          "type": "string"
        },
        {
          "indexed": false,
          "internalType": "string",
          "name": "studentType",
          "type": "string"
        }
      ],
      "name": "StudentAdded",
      "type": "event"
    },
    {
      "inputs": [
        {
          "internalType": "string",
          "name": "registerNumber",
          "type": "string"
        },
        {
          "internalType": "string",
          "name": "name",
          "type": "string"
        },
        {
          "internalType": "string",
          "name": "department",
          "type": "string"
        },
        {
          "internalType": "string",
          "name": "studentType",
          "type": "string"
        }
      ],
      "name": "registerStudent",
      "outputs": [],
      "stateMutability": "nonpayable",
      "type": "function"
    },
    {
      "inputs": [
        {
          "internalType": "string",
          "name": "registerNumber",
          "type": "string"
        }
      ],
      "name": "checkStudentExists",
      "outputs": [
        {
          "internalType": "bool",
          "name": "",
          "type": "bool"
        }
      ],
      "stateMutability": "view",
      "type": "function",
      "constant": true
    },
    {
      "inputs": [
        {
          "internalType": "string",
          "name": "registerNumber",
          "type": "string"
        }
      ],
      "name": "getStudentInfoByRegistrationNumber",
      "outputs": [
        {
          "components": [
            {
              "internalType": "string",
              "name": "registerNumber",
              "type": "string"
            },
            {
              "internalType": "string",
              "name": "name",
              "type": "string"
            },
            {
              "internalType": "string",
              "name": "department",
              "type": "string"
            },
            {
              "internalType": "string",
              "name": "studentType",
              "type": "string"
            },
            {
              "internalType": "uint256[]",
              "name": "paidFees",
              "type": "uint256[]"
            }
          ],
          "internalType": "struct StudentContract.Student",
          "name": "",
          "type": "tuple"
        }
      ],
      "stateMutability": "view",
      "type": "function",
      "constant": true
    },
    {
      "inputs": [
        {
          "internalType": "string",
          "name": "registerNumber",
          "type": "string"
        },
        {
          "internalType": "uint256",
          "name": "feeId",
          "type": "uint256"
        }
      ],
      "name": "payFee",
      "outputs": [],
      "stateMutability": "nonpayable",
      "type": "function"
    },
    {
      "inputs": [
        {
          "internalType": "string",
          "name": "registerNumber",
          "type": "string"
        }
      ],
      "name": "getPaidFees",
      "outputs": [
        {
          "internalType": "uint256[]",
          "name": "",
          "type": "uint256[]"
        }
      ],
      "stateMutability": "view",
      "type": "function",
      "constant": true
    }
  ],
  "bytecode": "0x608060405234801561001057600080fd5b50611211806100206000396000f3fe608060405234801561001057600080fd5b50600436106100575760003560e01c806359ab90711461005c5780636cfb4857146100785780638c347f4214610094578063d7bf9c90146100c4578063dc96472d146100f4575b600080fd5b61007660048036038101906100719190610a66565b610124565b005b610092600480360381019061008d9190610b3d565b61032c565b005b6100ae60048036038101906100a99190610a1d565b61041e565b6040516100bb9190610f3a565b60405180910390f35b6100de60048036038101906100d99190610a1d565b610761565b6040516100eb9190610e2c565b60405180910390f35b61010e60048036038101906101099190610a1d565b610845565b60405161011b9190610e4e565b60405180910390f35b6000846040516101349190610e15565b908152602001604051809103902060009054906101000a900460ff1615610190576040517f08c379a000000000000000000000000000000000000000000000000000000000815260040161018790610f1a565b60405180910390fd5b6040518060a00160405280858152602001848152602001838152602001828152602001600067ffffffffffffffff8111156101ce576101cd61111e565b5b6040519080825280602002602001820160405280156101fc5781602001602082028036833780820191505090505b508152506001856040516102109190610e15565b9081526020016040518091039020600082015181600001908051906020019061023a929190610879565b506020820151816001019080519060200190610257929190610879565b506040820151816002019080519060200190610274929190610879565b506060820151816003019080519060200190610291929190610879565b5060808201518160040190805190602001906102ae9291906108ff565b5090505060016000856040516102c49190610e15565b908152602001604051809103902060006101000a81548160ff0219169083151502179055507f6ef3757a54ee8d141bfd890e5105974cc7c293d6f695bdeb94699ed2d09f07018484848460405161031e9493929190610e69565b60405180910390a150505050565b8160008160405161033d9190610e15565b908152602001604051809103902060009054906101000a900460ff16610398576040517f08c379a000000000000000000000000000000000000000000000000000000000815260040161038f90610efa565b60405180910390fd5b6001836040516103a89190610e15565b90815260200160405180910390206004018290806001815401808255809150506001900390600052602060002001600090919091909150557f2b61e2068fdcbc3701e9402bf01a889d803ff7da59e752debd7bf665e12f6b248383604051610411929190610eca565b60405180910390a1505050565b61042661094c565b6000826040516104369190610e15565b908152602001604051809103902060009054906101000a900460ff16610491576040517f08c379a000000000000000000000000000000000000000000000000000000000815260040161048890610efa565b60405180910390fd5b6001826040516104a19190610e15565b90815260200160405180910390206040518060a00160405290816000820180546104ca9061108c565b80601f01602080910402602001604051908101604052809291908181526020018280546104f69061108c565b80156105435780601f1061051857610100808354040283529160200191610543565b820191906000526020600020905b81548152906001019060200180831161052657829003601f168201915b5050505050815260200160018201805461055c9061108c565b80601f01602080910402602001604051908101604052809291908181526020018280546105889061108c565b80156105d55780601f106105aa576101008083540402835291602001916105d5565b820191906000526020600020905b8154815290600101906020018083116105b857829003601f168201915b505050505081526020016002820180546105ee9061108c565b80601f016020809104026020016040519081016040528092919081815260200182805461061a9061108c565b80156106675780601f1061063c57610100808354040283529160200191610667565b820191906000526020600020905b81548152906001019060200180831161064a57829003601f168201915b505050505081526020016003820180546106809061108c565b80601f01602080910402602001604051908101604052809291908181526020018280546106ac9061108c565b80156106f95780601f106106ce576101008083540402835291602001916106f9565b820191906000526020600020905b8154815290600101906020018083116106dc57829003601f168201915b505050505081526020016004820180548060200260200160405190810160405280929190818152602001828054801561075157602002820191906000526020600020905b81548152602001906001019080831161073d575b5050505050815250509050919050565b60606000826040516107739190610e15565b908152602001604051809103902060009054906101000a900460ff166107ce576040517f08c379a00000000000000000000000000000000000000000000000000000000081526004016107c590610efa565b60405180910390fd5b6001826040516107de9190610e15565b908152602001604051809103902060040180548060200260200160405190810160405280929190818152602001828054801561083957602002820191906000526020600020905b815481526020019060010190808311610825575b50505050509050919050565b600080826040516108569190610e15565b908152602001604051809103902060009054906101000a900460ff169050919050565b8280546108859061108c565b90600052602060002090601f0160209004810192826108a757600085556108ee565b82601f106108c057805160ff19168380011785556108ee565b828001600101855582156108ee579182015b828111156108ed5782518255916020019190600101906108d2565b5b5090506108fb919061097b565b5090565b82805482825590600052602060002090810192821561093b579160200282015b8281111561093a57825182559160200191906001019061091f565b5b509050610948919061097b565b5090565b6040518060a0016040528060608152602001606081526020016060815260200160608152602001606081525090565b5b8082111561099457600081600090555060010161097c565b5090565b60006109ab6109a684610f81565b610f5c565b9050828152602081018484840111156109c7576109c6611152565b5b6109d284828561104a565b509392505050565b600082601f8301126109ef576109ee61114d565b5b81356109ff848260208601610998565b91505092915050565b600081359050610a17816111c4565b92915050565b600060208284031215610a3357610a3261115c565b5b600082013567ffffffffffffffff811115610a5157610a50611157565b5b610a5d848285016109da565b91505092915050565b60008060008060808587031215610a8057610a7f61115c565b5b600085013567ffffffffffffffff811115610a9e57610a9d611157565b5b610aaa878288016109da565b945050602085013567ffffffffffffffff811115610acb57610aca611157565b5b610ad7878288016109da565b935050604085013567ffffffffffffffff811115610af857610af7611157565b5b610b04878288016109da565b925050606085013567ffffffffffffffff811115610b2557610b24611157565b5b610b31878288016109da565b91505092959194509250565b60008060408385031215610b5457610b5361115c565b5b600083013567ffffffffffffffff811115610b7257610b71611157565b5b610b7e858286016109da565b9250506020610b8f85828601610a08565b9150509250929050565b6000610ba58383610df7565b60208301905092915050565b6000610bbc82610fc2565b610bc68185610fe5565b9350610bd183610fb2565b8060005b83811015610c02578151610be98882610b99565b9750610bf483610fd8565b925050600181019050610bd5565b5085935050505092915050565b6000610c1a82610fc2565b610c248185610ff6565b9350610c2f83610fb2565b8060005b83811015610c60578151610c478882610b99565b9750610c5283610fd8565b925050600181019050610c33565b5085935050505092915050565b610c7681611034565b82525050565b6000610c8782610fcd565b610c918185611007565b9350610ca1818560208601611059565b610caa81611161565b840191505092915050565b6000610cc082610fcd565b610cca8185611018565b9350610cda818560208601611059565b610ce381611161565b840191505092915050565b6000610cf982610fcd565b610d038185611029565b9350610d13818560208601611059565b80840191505092915050565b6000610d2c601683611018565b9150610d3782611172565b602082019050919050565b6000610d4f601a83611018565b9150610d5a8261119b565b602082019050919050565b600060a0830160008301518482036000860152610d828282610c7c565b91505060208301518482036020860152610d9c8282610c7c565b91505060408301518482036040860152610db68282610c7c565b91505060608301518482036060860152610dd08282610c7c565b91505060808301518482036080860152610dea8282610bb1565b9150508091505092915050565b610e0081611040565b82525050565b610e0f81611040565b82525050565b6000610e218284610cee565b915081905092915050565b60006020820190508181036000830152610e468184610c0f565b905092915050565b6000602082019050610e636000830184610c6d565b92915050565b60006080820190508181036000830152610e838187610cb5565b90508181036020830152610e978186610cb5565b90508181036040830152610eab8185610cb5565b90508181036060830152610ebf8184610cb5565b905095945050505050565b60006040820190508181036000830152610ee48185610cb5565b9050610ef36020830184610e06565b9392505050565b60006020820190508181036000830152610f1381610d1f565b9050919050565b60006020820190508181036000830152610f3381610d42565b9050919050565b60006020820190508181036000830152610f548184610d65565b905092915050565b6000610f66610f77565b9050610f7282826110be565b919050565b6000604051905090565b600067ffffffffffffffff821115610f9c57610f9b61111e565b5b610fa582611161565b9050602081019050919050565b6000819050602082019050919050565b600081519050919050565b600081519050919050565b6000602082019050919050565b600082825260208201905092915050565b600082825260208201905092915050565b600082825260208201905092915050565b600082825260208201905092915050565b600081905092915050565b60008115159050919050565b6000819050919050565b82818337600083830152505050565b60005b8381101561107757808201518184015260208101905061105c565b83811115611086576000848401525b50505050565b600060028204905060018216806110a457607f821691505b602082108114156110b8576110b76110ef565b5b50919050565b6110c782611161565b810181811067ffffffffffffffff821117156110e6576110e561111e565b5b80604052505050565b7f4e487b7100000000000000000000000000000000000000000000000000000000600052602260045260246000fd5b7f4e487b7100000000000000000000000000000000000000000000000000000000600052604160045260246000fd5b600080fd5b600080fd5b600080fd5b600080fd5b6000601f19601f8301169050919050565b7f53747564656e74206e6f74207265676973746572656400000000000000000000600082015250565b7f53747564656e7420616c72656164792072656769737465726564000000000000600082015250565b6111cd81611040565b81146111d857600080fd5b5056fea2646970667358221220a58de9579f53fefd1aba6bdc15a0eb39120dfcfa8c131180aeb6d976ad455bed64736f6c63430008070033",
  "immutableReferences": {},
  "source": "// SPDX-License-Identifier: MIT\npragma solidity ^0.8.7;\n\ncontract StudentContract {\n    struct Student {\n        string registerNumber;\n        string name;\n        string department;\n        string studentType;\n        uint256[] paidFees;\n    }\n\n    mapping(string => bool) private registeredStudents;\n    mapping(string => Student) private students;\n\n    event StudentAdded(string registerNumber, string name, string department, string studentType);\n    event FeePaid(string registerNumber, uint256 feeId);\n\n    modifier onlyRegisteredStudent(string memory registerNumber) {\n        require(registeredStudents[registerNumber], \"Student not registered\");\n        _;\n    }\n\n    function registerStudent(string memory registerNumber, string memory name, string memory department, string memory studentType) external {\n        require(!registeredStudents[registerNumber], \"Student already registered\");\n        students[registerNumber] = Student(registerNumber, name, department, studentType, new uint256[](0));\n        registeredStudents[registerNumber] = true;\n        emit StudentAdded(registerNumber, name, department, studentType);\n    }\n\n    function checkStudentExists(string memory registerNumber) external view returns (bool) {\n        return registeredStudents[registerNumber];\n    }\n\n    function getStudentInfoByRegistrationNumber(string memory registerNumber) external view returns (Student memory) {\n        require(registeredStudents[registerNumber], \"Student not registered\");\n        return students[registerNumber];\n    }\n\n    function payFee(string memory registerNumber, uint256 feeId) external onlyRegisteredStudent(registerNumber) {\n        students[registerNumber].paidFees.push(feeId);\n        emit FeePaid(registerNumber, feeId);\n    }\n\n    function getPaidFees(string memory registerNumber) external view returns (uint256[] memory) {\n        require(registeredStudents[registerNumber], \"Student not registered\");\n        return students[registerNumber].paidFees;\n    }\n}\n",
  "sourcePath": "/root/Documents/ZeroReview/ZeroApp/contracts/StudentContract.sol",
  "compiler": {
    "name": "solc",
    "version": "0.8.7+commit.e28d00a7.Emscripten.clang"
  },
  "schemaVersion": "3.4.15",
  "updatedAt": "2023-11-02T04:49:45.578Z",
  "networkType": "ethereum",
  "devdoc": {
    "kind": "dev",
    "methods": {},
    "version": 1
  },
  "userdoc": {
    "kind": "user",
    "methods": {},
    "version": 1
  }
}